{
  "contractName": "ConsumerRole",
  "abi": [
    {
      "inputs": [],
      "payable": false,
      "stateMutability": "nonpayable",
      "type": "constructor"
    },
    {
      "anonymous": false,
      "inputs": [
        {
          "indexed": true,
          "name": "account",
          "type": "address"
        }
      ],
      "name": "ConsumerAdded",
      "type": "event"
    },
    {
      "anonymous": false,
      "inputs": [
        {
          "indexed": true,
          "name": "account",
          "type": "address"
        }
      ],
      "name": "ConsumerRemoved",
      "type": "event"
    },
    {
      "constant": true,
      "inputs": [
        {
          "name": "account",
          "type": "address"
        }
      ],
      "name": "isConsumer",
      "outputs": [
        {
          "name": "",
          "type": "bool"
        }
      ],
      "payable": false,
      "stateMutability": "view",
      "type": "function"
    },
    {
      "constant": false,
      "inputs": [
        {
          "name": "account",
          "type": "address"
        }
      ],
      "name": "addConsumer",
      "outputs": [],
      "payable": false,
      "stateMutability": "nonpayable",
      "type": "function"
    },
    {
      "constant": false,
      "inputs": [],
      "name": "renounceConsumer",
      "outputs": [],
      "payable": false,
      "stateMutability": "nonpayable",
      "type": "function"
    }
  ],
  "bytecode": "0x608060405234801561001057600080fd5b506100293361002e640100000000026401000000009004565b6101e5565b61004c60008261009264010000000002610286176401000000009004565b8073ffffffffffffffffffffffffffffffffffffffff167f28b26e7a3d20aedbc5f8f2ebf7da671c0491723a2b78f47a097b0e46dee0714260405160405180910390a250565b600073ffffffffffffffffffffffffffffffffffffffff168173ffffffffffffffffffffffffffffffffffffffff16141515156100ce57600080fd5b6100e78282610151640100000000026401000000009004565b1515156100f357600080fd5b60018260000160008373ffffffffffffffffffffffffffffffffffffffff1673ffffffffffffffffffffffffffffffffffffffff16815260200190815260200160002060006101000a81548160ff0219169083151502179055505050565b60008073ffffffffffffffffffffffffffffffffffffffff168273ffffffffffffffffffffffffffffffffffffffff161415151561018e57600080fd5b8260000160008373ffffffffffffffffffffffffffffffffffffffff1673ffffffffffffffffffffffffffffffffffffffff16815260200190815260200160002060009054906101000a900460ff16905092915050565b610411806101f46000396000f300608060405260043610610057576000357c0100000000000000000000000000000000000000000000000000000000900463ffffffff168063112940f91461005c57806361e6982d1461009f578063834ff739146100b6575b600080fd5b34801561006857600080fd5b5061009d600480360381019080803573ffffffffffffffffffffffffffffffffffffffff169060200190929190505050610111565b005b3480156100ab57600080fd5b506100b4610131565b005b3480156100c257600080fd5b506100f7600480360381019080803573ffffffffffffffffffffffffffffffffffffffff16906020019092919050505061013c565b604051808215151515815260200191505060405180910390f35b61011a3361013c565b151561012557600080fd5b61012e81610150565b50565b61013a336101a1565b565b60006101496000836101f2565b9050919050565b61015b600082610286565b8073ffffffffffffffffffffffffffffffffffffffff167f28b26e7a3d20aedbc5f8f2ebf7da671c0491723a2b78f47a097b0e46dee0714260405160405180910390a250565b6101ac600082610336565b8073ffffffffffffffffffffffffffffffffffffffff167fe3f5ed5f263f1f01764a96edfc7d025f511ec5f7d180e8816908b78bcf74f09860405160405180910390a250565b60008073ffffffffffffffffffffffffffffffffffffffff168273ffffffffffffffffffffffffffffffffffffffff161415151561022f57600080fd5b8260000160008373ffffffffffffffffffffffffffffffffffffffff1673ffffffffffffffffffffffffffffffffffffffff16815260200190815260200160002060009054906101000a900460ff16905092915050565b600073ffffffffffffffffffffffffffffffffffffffff168173ffffffffffffffffffffffffffffffffffffffff16141515156102c257600080fd5b6102cc82826101f2565b1515156102d857600080fd5b60018260000160008373ffffffffffffffffffffffffffffffffffffffff1673ffffffffffffffffffffffffffffffffffffffff16815260200190815260200160002060006101000a81548160ff0219169083151502179055505050565b600073ffffffffffffffffffffffffffffffffffffffff168173ffffffffffffffffffffffffffffffffffffffff161415151561037257600080fd5b61037c82826101f2565b151561038757600080fd5b60008260000160008373ffffffffffffffffffffffffffffffffffffffff1673ffffffffffffffffffffffffffffffffffffffff16815260200190815260200160002060006101000a81548160ff02191690831515021790555050505600a165627a7a72305820a5d31380ee1933d5353fe56675052a606f82cd04b7602b6203c9dfbe4c14ac590029",
  "source": "pragma solidity ^0.4.24;\n\n// Import the library 'Roles'\nimport \"./Roles.sol\";\n\n\n// Define a contract 'ConsumerRole' to manage this role - add, remove, check\ncontract ConsumerRole {\n    // Define 2 events, one for Adding, and other for Removing\n    event ConsumerAdded(address indexed account);\n    event ConsumerRemoved(address indexed account);\n\n    // Define a struct 'consumers' by inheriting from 'Roles' library, struct Role\n    Roles.Role private consumers;\n\n    // In the constructor make the address that deploys this contract the 1st consumer\n    constructor() public {\n        _addConsumer(msg.sender);\n    }\n\n    // Define a modifier that checks to see if msg.sender has the appropriate role\n    modifier onlyConsumer() {\n        require(isConsumer(msg.sender));\n\n        _;\n    }\n\n    // Define a function 'isConsumer' to check this role\n    function isConsumer(address account) public view returns (bool) {\n        return Roles.has(consumers, account);\n    }\n\n    // Define a function 'addConsumer' that adds this role\n    function addConsumer(address account) public onlyConsumer {\n        _addConsumer(account);\n    }\n\n    // Define a function 'renounceConsumer' to renounce this role\n    function renounceConsumer() public {\n        _removeConsumer(msg.sender);\n    }\n\n    // Define an internal function '_addConsumer' to add this role, called by 'addConsumer'\n    function _addConsumer(address account) internal {\n        Roles.add(consumers, account);\n        emit ConsumerAdded(account);\n    }\n\n    // Define an internal function '_removeConsumer' to remove this role, called by 'removeConsumer'\n    function _removeConsumer(address account) internal {\n        Roles.remove(consumers, account);\n        emit ConsumerRemoved(account);\n    }\n}\n",
  "sourcePath": "/home/asish/nd1309-Project-6b-Example-Template/project-6/contracts/coffeeaccesscontrol/ConsumerRole.sol",
  "compiler": {
    "name": "solc",
    "version": "0.4.26+commit.4563c3fc.Emscripten.clang"
  },
  "schemaVersion": "3.0.23",
  "updatedAt": "2020-04-21T04:07:52.466Z",
  "networkType": "ethereum",
  "devdoc": {
    "methods": {}
  },
  "userdoc": {
    "methods": {}
  }
}